:020000040800F2
:1000000000000120517F0408ED7F040851C1010860
:10001000A9BF0108ED7F0408ED7F0408000000007F
:10002000000000000000000000000000ED7F040858
:10003000ED7F040800000000ED7F0408B98101088D
:10004000ED7F0408ED7F0408ED7F0408ED7F0408D0
:10005000ED7F0408ED7F0408D57C0108DD7C0108F4
:10006000E57C0108ED7C0108F57C010835A5000858
:1000700049A500085DA5000871A5000885A5000830
:1000800099A50008ADA50008ED7F0408ED7F0408E0
:10009000ED7F0408ED7F0408ED7F0408FD7C010876
:1000A000CDC10008B9C00008DDC10008A9C0000822
:1000B000E1C00008F1C0000801C1000805A1000866
:1000C000F9A0000839A100082DA10008ED7F04085F
:1000D000ED7F040805810108118101081D810108D7
:1000E000057D0108ED7F0408ED7F0408EDC10008DF
:1000F000A5C10008ED7F040895C10008C1A500084E
:10010000ED7F0408ED7F040811C10008ED7F0408AD
:10011000298101083581010821C10008D90E040890
:10012000D5A50008E9A50008FDA5000811A600084E
:1001300025A60008000000000000000000000000EC
:100140000000000000000000000000005D04040842
:1001500039A600084DA6000861A6000841810108E3
:100160006DA1000861A10008ED7F0408ED7F04087F
:10017000ED7F0408ED7F040800000000000000008F
:10018000ED7F0408ED7F0408ED7F0408ED7F04088F
:10019000ED7F0408ED7F040800000000ED7F0408F7
:1001A000000000000000000000000000ED7F0408D7
:1001B000ED7F0408ED7F040800000000000000004F
:1001C000000000000000000000000000000000002F
:1001D000000000000000000000000000ED7F0408A7
:0801E0009C7A040001000000FC
:1001E800FA01010004000000B03401205834012055
:1001F800000000009DE00008543401200530010093
:10020800080000007C2F012060340120000000005D
:10021800D0CE05085C340120130201000400000060
:10022800CC2C01206C34012000000000D8CE050839
:10023800683401201F020800100000002426012055
:1002480074340120000000007DE1000870340120B2
:100258000620010026000000C81D01208834012066
:1002680000000000B5E000088434012015001000EB
:1002780070000000E0650120A06C01200000000073
:10028800000000009C6C01202A00080060000000AB
:1002980080650120146D0120000000005D9A0208AD
:1002A800106D012021020100F0000000906401207F
:1002B800786D012000000000094F0308746D0120CB
:1002C8002C00040010000000806401206C6E0120E6
:1002D80000000000AD9A0208686E012025201E006B
:1002E8002C010000D4620120806E01200000000073
:1002F800000000007C6E01202B001200240000008A
:100308001C620120B06F012000000000C99A020899
:10031800AC6F0120012001000C000000805A012070
:10032800D86F012000000000DCCE0508D46F012042
:100338001620010006000000985A0120E86F0120ED
:1003480000000000E8CE0508E46F01202700010046
:10035800040000008C5A0120F46F01200000000006
:10036800EECE0508F06F01200C500400800000005C
:1003780008540120FC6F012000000000B14602086B
:10038800F86F0120031101000A0000002C59012018
:100398008070012000000000C98403087C700120DF
:1003A80029201400780000001458012090700120C2
:1003B80000000000000000008C70012023200100D4
:1003C80010000000045801200C71012000000000FA
:1003D800959B0208087101200B3001001A000000EB
:1003E800CC5701202071012000000000F2CE050842
:1003F8001C7101200E50040058020000885401208E
:100408004071012000000000199802083C71012089
:100418000D10010070000000545701209C7301204A
:100428000000000009CE0108987301202202010093
:100438001C01000038590120107401200000000040
:1004480071F300080C740120160215003F0000002B
:10045800707501203075012000000000C5E100081A
:100468002C75012018400100380000001C5701209D
:10047800B475012000000000A9E60008B07501204D
:100488001B0201001000000000760120F075012019
:100498000000000069E10008EC7501202802040052
:1004A80004000000187601201476012000000000E6
:1004B8005DE1000810760120270204000400000016
:1004C80024760120207601200000000051E1000878
:1004D8001C7601201A0201003C00000090660120F1
:1004E8002C7601200000000049E60008287601204B
:1004F8000400080080000000006401206C760120E0
:100508000000000000000000687601201C020200C4
:100518001C000000E8570120F076012000000000D0
:10052800F1E50008EC760120263001000800000003
:100538006868012010770120000000007982030814
:100548000C770120081204001400000054680120F0
:100558001C7701200000000029E00008187701201E
:100568000A02010014000000C0680120347701204D
:1005780000000000ED460208307701200A900100D3
:1005880024000000E05601204C7701200000000004
:10059800A99B020848770120031201003D000000D2
:1005A8005066012074770120000000000CCF050878
:1005B80070770120010201000A000000F86B012099
:1005C800B8770120000000008DE00008B477012012
:1005D8000C0201000400000070680120C8770120A7
:1005E80000000000A5E00008C4770120FD17010005
:1005F8009A000000026C0120D07701200000000062
:10060800E12F0308CC77012013100100040000003B
:10061800C457012070780120000000004CCF050865
:100628006C7801200202010003000000F46B012035
:100638007878012000000000000000007478012094
:10064800F5C1010074000000B8580120807801202D
:1006580000000000A95503087C780120F62101005C
:100668000C000000AC580120F878012000000000C0
:1006780050CF0508F4780120121201000400000090
:10068800007A012008790120000000005CCF0508ED
:10069800047901201102010008000000047A0120F9
:1006A800107901200000000060CF05080C790120B6
:1006B80034000100100000000C7A01201C79012090
:1006C80000000000419A020818790120F831010061
:1006D80006000000045701203079012000000000C6
:1006E80068CF05082C790120020001000C000000E9
:1006F800EC6801203C7901200000000000000000A7
:1007080038790120FE0101001400000090580120F2
:100718004C7901200000000011E000084879012010
:100728000612040018000000A8680120647901205E
:10073800000000007DE5000860790120F701010054
:1007480006000000A4580120807901200000000064
:100758006ECF05087C7901201A0001000E00000008
:100768003C6801208C7901200000000074CF050846
:1007780088790120140001000500000014570120A9
:10078800A07901200000000082CF05089C79012093
:10079800FD0101002400000016680120AC79012049
:1007A80000000000435D0108A87901201D02020035
:1007B8000600000010680120D47901200000000024
:1007C80000000000D0790120F901010004000000B8
:1007D8001C7A0120E079012000000000FD5C01087E
:1007E800DC79012012300100100000005053012074
:1007F800E87901200000000088CF0508E47901208D
:100808003840010006000000307B0120D480012020
:100818000000000098CF0508D08001201B200100AF
:100828000C00000044800120E0800120000000004E
:10083800052A0308DC8001201010010002000000D6
:10084800747E0120F0800120000000009ECF050882
:10085800EC8001200E0201000200000078800120D7
:10086800F880012000000000A0CF0508F4800120D6
:100878002F20010022000000008101207C8001203F
:1008880000000000A2CF0508FC8001200101010042
:1008980004000000E8820120E88801200000000030
:1008A80000000000E48801200001010004000000AD
:1008B800E4820120F088012000000000C4CF050870
:1008C800EC8801200201010003000000E082012001
:1008D800F888012000000000A1460208F4880120E1
:1008E8002902010040000000208801200089012021
:1008F80000000000C8CF0508FC8801202052010034
:1009080008000000EC81012044890120000000005B
:1009180008D00508408901202A12010008000000BB
:10092800E4810120508901200000000010D0050852
:100938004C8901201900010005000000DC8101201C
:100948005C8901200000000018D0050858890120A2
:100958001F50010024000000FC8701206889012045
:100968000000000020D0050864890120233201001E
:1009780014000000E88E01204C92012000000000C5
:1009880044D005084892012003000100010000003E
:10099800B48F0120649201200000000000000000D4
:1009A800609201200502010004000000A48F0120CC
:1009B8006C9201200000000058D0050868920120C0
:1009C8002C020100040000004492012094920120AE
:1009D800000000005CD00508909201202D02010063
:1009E80001000000AC8901209C9201200000000059
:1009F8000000000098920120001201000A00000087
:100A0800E09C012014A0012000000000000000006C
:100A180010A001201002010001000000D4BC012038
:100A2800D0BC01200000000060D00508CCBC01202B
:08280000082800080040000850
:10800000084A0346D0F8E4005268D3F8F010121A78
:1080100000209142B8BFC3F8F020012283F81C2150
:10802000704700BF001000E090F8DB30052B03D84C
:1080300090F81E31032B01D00020704790F82331B7
:1080400003F0FB03022B0CBF00200720704700BF8A
:1080500030B5FAB18E464FEA014C034600F1C00537
:10806000002419680C3353F8042C43F8084C41EAF7
:108070000C0142EA0E02AB4243F80C1C43F8042CFC
:10808000EFD1D0F8C03043EA0E03C0E93144C0F864
:10809000C03030BD4FEA014E8C46DEE78369596936
:1080A000B3F810C00A6830B49C6822F0010224685A
:1080B0000A60E26822EA0C02E260027D04681F2A7C
:1080C00006D9203A082065689040284242D0FEE751
:1080D0000820256890402842F9D1202000FA02F2B9
:1080E000A260254A1278002A32D01A7F012A36D09F
:1080F000D3F800210132C3F80021EFF3118150229F
:1081000082F312885868C9B29D6C0268DC6C22EA5E
:1081100005022243026081F311885A699968D3E904
:108120000D40096814605061D3E90F4054609060BD
:108130005C6CB3F8B400D4600124C86210682043BA
:1081400010601A8A1C7783F8FD40CB681343CB601C
:1081500030BC7047202000FA02F2E260C1E7002242
:10816000D3F8040183F8FD2001300A68C3F8040144
:1081700022F001020A60EBE7C801002010B40C4CA9
:108180006368002B11DD002004F1080C0146DCF8C7
:10819000AC3003F1C00259600C339342FBD1013083
:1081A00063680CF5867C8342F1DC5DF8044B704714
:1081B000C801002070B5104ED6F83834002B18DDF9
:1081C00006F23C44002504E0D6F838342034AB42B3
:1081D0000FDD237F0135002BF6D0E0680022002858
:1081E000F2D0217D20340FF0E9FDD6F83834AB42CF
:1081F000EFDC012070BD00BFC8010020704700BF48
:10820000024B03EB401090F859047047C80100205E
:108210004368426D30B49A61EFF31182502383F3C7
:1082200012884168D2B2856C0B68046D23EA05039D
:1082300023430B6082F31188436981681A680968D7
:1082400022F00102D0E908541A60826A1D605C6164
:108250005A60D0E90B429C60DA600023B0F86C20D1
:1082600030BCCA62037770474FF400638381704764
:108270004FF40063838170474FF40063838170473C
:10828000704701207047012070472DE9F047DFF863
:1082900080810E460746D8F80050B8F80420B8F898
:1082A0000A90C2EB25135200C2EBE502B8F9065062
:1082B0006A4303FB03F5B8F908302D135D43B8F9A1
:1082C0000E30AD134FEAE37E05EBE225A5F5FA315A
:1082D000C8F81C5081FB010C03FB0CF200FB0E22C2
:1082E000A3FB003E9644B8F90C201B0A82FB014216
:1082F00043EA0E63120342EA145224031B194FF09F
:10830000000442EB2E22A3FB093E02F5004209FBCA
:1083100002EE4FEAEE734FEA6E0253EA6E0E6BD036
:10832000B8F914904FEAE97E09FB0CFC00FB0ECC77
:10833000A9FB00908444B8F9120080FB01E14804D5
:108340004FEA4E4140EADE3011EB0909D8F820101F
:108350004CEB0000C1F5801C14EB0904B8F91010B7
:108360000CF0004A40F6354900EBC1014AEA5C0ACC
:108370004FEACC7CBCEB04006AEB010AA0FB0901CC
:1083800009FB0A113FF0FEFBB8F91A404FEA613EC3
:108390008146430B04FB0EF24FEAE47C43EAC143FF
:1083A00003FB0C2CA4FB0342624404FB0EFE03FB04
:1083B00002EEB8F91820A4FB03439E44640E02FBAE
:1083C00001F344EACE1414EB000C4FEAE274A2FB72
:1083D000092941EB6E6E04FB0031D40CB8F916305C
:1083E000494444EA41341CEB04044EEBE141240AC5
:1083F00044EA016404EB03140FB1240A3C6026B183
:1084000005EB850580352D123560BDE8F08700BF8E
:108410003017012008B500683CF060FBD8B90F4A5E
:108420000F4992F83D3592F83C051B0143EA0033B1
:1084300092F83E0543EA101392F83F050B6292F85A
:10844000403592F841251B0143EA0033012043EAFD
:1084500012130B6008BD0020FCE700BFC80100201C
:10846000301701203B4BDFED3C3A93F8251093F891
:108470002400090293F8262093F827C001EB00415D
:1084800093F8280093ED0D6A0A4409024FEA002090
:1084900093F8291048BF02F17F42B8EEC66A00EB9C
:1084A0000C4007EE902AB3F940200144000205EE8B
:1084B000902AB3F93C20F8EEE77A48BF01F17F41FA
:1084C00004EE902AB3F93E20F8EEE55A07EE101AB2
:1084D00067EEA37A06EE902AF8EEE44AB3F93A2062
:1084E000F8EEE66A012005EE102AB3F93820E7EE2F
:1084F000A54AB8EEC55A04EE102AB8EEC77AB3F909
:108500002E20B8EEC44AA7EEA65AD3ED0C6A27EE89
:10851000237A05EE902AA4EEA76AB3F92C20F8EE90
:10852000E66AF8EEE55A04EE902AF6EE003AE7EE37
:10853000046AF8EEE44AA5EE076A65EE875AB0EEE3
:10854000667AE4EEA35AA7EE867AC3ED125A83ED5B
:10855000117A7047301701200821843630B10A4B58
:10856000D3ED117AFDEEE77AC0ED007A51B1064BFA
:108570009FED067AD3ED127A67EE877AFDEEE77A01
:10858000C1ED007A704700BF301701200000C842DB
:10859000704700BF0120704701207047704700BF3F
:1085A0000020024B83F84C00704700BF30170120B9
:1085B0000346012200205A77704700BF08B5D0E972
:1085C0000B2183690B4483610AB108469047002060
:1085D00008BD00BF436A02461B681B6A5B685B7884
:1085E00013F0010008BF5077704700BFC26281617D
:1085F000704700BF704700BF043070470B4B93F8C3
:108600005420196D02440844D2B2186583F85420EE
:1086100093F85420120605D593F8542082F0800276
:1086200083F85420024B01221A7070473017012042
:10863000000001202DE9F84F144FBD6DED0A1FD049
:108640000026DFF84CA007F15C09B046AC19F96DC3
:10865000102352466410D1F828B04846C7F88880E5
:10866000E102D8470F280BDD094B03F1100253F844
:10867000041B013107D19342F9D12546B542E5DC0F
:10868000E802BDE8F88F661CF8E700BF301701204C
:1086900000000020194BD3F89010D3F894208A1AC8
:1086A000322A15D8D3F8A8208A4200D37047D3F8CD
:1086B0009C20F2B110683231928810B44469C3F83A
:1086C000A81022425DF8044B18BF12048261704763
:1086D00093F89820D3F89C1002F0010219B10868B1
:1086E000898822B981610022C3F8A8207047090453
:1086F000F8E73231C3F8A810704700BF30170120E7
:10870000074A92F89830D2F89C2003F001031AB17E
:108710001168928813B98A61002070471204FAE741
:1087200030170120044B4FF4007C0020D3F8B83000
:10873000A2F800C00B60704730170120002070477E
:10874000012070470120704700207047134BD0F87C
:10875000D8105B68D0F8E02010B50446581A824261
:1087600000DC22B9D4F8E4200A44C4F8DC2094F8F0
:10877000D020C4F8D830012A05D0D4F8D430013341
:10878000C4F8D43010BD04F1E801201D0EF02AFE1B
:10879000D4F8D4300133C4F8D43010BD001000E058
:1087A000CB070AD490F82830012B08D0C368B3F166
:1087B000807F03D901230377704770477047204AB1
:1087C000D2E93A1310B5B1EB930F8CB04FEA930294
:1087D000446A4FF0020306D252085B0091429BB2FA
:1087E00001D2FF2BF8D9C268A380B2F1807F24D9CF
:1087F0000122002301A94FF0B70C02772046049212
:108800008DF814208DF828200B938DF804C0CDE945
:10881000021302A9CDE90633CDE908330EF0E2FDDB
:108820002268536A002B18BF9C4214BF0123002307
:10883000002BFDD1136A002BFCD10CB010BD00BF82
:108840003017012030B590F828208BB00023044663
:10885000012A08D0427F62B103F0010383F00100D6
:1088600063770BB030BD456A29680A7B4ABB637FDA
:1088700013B901200BB030BD194902200023012299
:108880000290081F8DF80C208DF820200993CDE967
:10889000001069462846CDE90433CDE906330EF0D1
:1088A000A1FD2A68536A002B18BF9D4214BF012303
:1088B0000023002BFDD1136A002BFCD1094B5B7CFC
:1088C000CAE7486A984218BF854214BF01200020B9
:1088D00003D10B6A002BCAD0C3E71846C1E700BF1B
:1088E000140000200000002030B590F828108BB054
:1088F0000446427F01293CD0002A42D101200BB01E
:1089000030BD596A8D4201D0002933D11B6A002B3A
:1089100030D1002AF2D01C4902200023012202900B
:10892000081F8DF80C208DF820200993CDE9001048
:1089300069462846CDE90433CDE906330EF052FDF1
:108940002A68536A9D4218BF002B14BF01230023DD
:10895000002BFDD1136A002BFCD10C4B5B7C03F088
:1089600001031A466377002BC8D094F82810012918
:10897000F7D1656A2B68197B0029C2D1002ABDD0C6
:10898000C9E70023EBE700BF14000020000000202F
:108990002C4A012330B5044695B0101D8DF80C30DB
:1089A00007938DF820308DF834308DF8483002F17F
:1089B0000803656A0593CDE900200220083A029079
:1089C00021480A9200220490207F069290420B9246
:1089D000139214BF05230423CDE90E22CDE9102202
:1089E0002A680C93536A002B18BF9D42174D14BF81
:1089F000012300230995002BFDD1136A002BFCD124
:108A0000E8B113480A0E00F11A0342760A0A997077
:108A1000080C69465A701870606A0EF0E3FC616ACF
:108A20000A68536A994218BF002B14BF0123002320
:108A3000002BFDD1136A002BFCD115B030BD054BC6
:108A4000E4E700BF20000020D5850008B1850008BC
:108A5000000000201900002010B594B004465022F8
:108A60000B49684640F00EFD6946606A0EF0BAFC9C
:108A7000616A0A68536A002B18BF994214BF012328
:108A80000023002BFDD1136A002BFCD114B010BDC4
:108A9000D8980408F8B50646406A05686C6A002C48
:108AA00018BFA04214BF01240024002CFDD12C6A61
:108AB000002CFCD1307F002839D0B06905272A4D21
:108AC0004FEA106C294C2E3505F801CC6763A8706D
:108AD0004FEA104C000A012B85F800C068704FF077
:108AE00000000D6825641568A5643563A06524D071
:108AF000022B1BD15368012220651D444968E365A0
:108B00001B4B84F84C006165356384F86020636614
:108B1000184B717F03F11402706A002914BF1946C3
:108B200011460EF05FFCF36A73B1306BF8BD0420A0
:108B30000E4C114D6063B069C9E70D4A84F84C30A2
:108B40006065E0652265E3E7716A0A68536A002B95
:108B500018BF994214BF01230023002BFDD1136AD3
:108B6000002BFCD1E1E700BF000000200000012045
:108B7000BD850008040001202D00002000B583B051
:108B80008161019201A9049A00930123C2626A469D
:108B9000FFF780FF03B05DF804FB00BFF0B51D4692
:108BA000436A95B007461E68746A002C18BFA3423A
:108BB00014BF01240024002CFDD1336A002BFCD10A
:108BC0003E4B02203E4E029003F13C00049603F11E
:108BD0003406009003F140000596019001203E7F8D
:108BE00006948DF80C00002E55D00B920A0E3633E9
:108BF0008DF8204003F8012C05220C958DF83400E7
:108C00008DF8480013940792CDE90944CDE90E444C
:108C1000CDE910440A0C99702A4C090A1A7059704F
:108C2000786AD4E93A32B3EB920F4FEA92014FF0EF
:108C3000020206D2490852008B4292B201D2FF2AA8
:108C4000F8D97B7F828023BB05A90EF0CBFB786A25
:108C500001684A6A824218BF002A14BF012200221A
:108C6000002AFDD10B6A002BFCD1D4E93B23B3EBE6
:108C7000920F4FEA92014FF0020206D249085200C9
:108C80008B4292B201D2FF2AF8D98280284615B0D1
:108C9000F0BD6946D9E70B92042235338DF82040A8
:108CA0000C958DF834008DF8480013940792CDE9A7
:108CB0000944CDE90E44CDE91044ABE700000020A3
:108CC000D5850008301701200269C3682DE9F047F7
:108CD00012EA03092AD005460E464FF000474FF02E
:108CE0000008B9FA89F327FA03F21B3BD24309EAD9
:108CF00002092A61042B16D8DFE803F0352C231A69
:108D00000300B36A002B37D003F1FF3AC6F828807E
:108D10001FFA8AFA746A34B123682046514698478C
:108D20006468002CF8D1B9F1000FDAD1BDE8F08702
:108D30007068696B036889B29847B9F1000FD0D1A8
:108D4000F4E7B068A96B036889B29847B9F1000FDE
:108D5000C7D1EBE7F068E96B036889B29847B9F1CE
:108D6000000FBED1E2E73069296C036889B29847E9
:108D7000B9F1000FB5D1D9E7E96A1FFA81FAC9E75D
:108D8000F0B5044690F8210187B008B907B0F0BDEE
:108D90000EF0EEFF0546002853D0818826222A4B8C
:108DA000C280E360B1FA81F3202BC3F11F02EDD042
:108DB00026480C34264E104406EB820290F8507080
:108DC000C2F8F4404FF0004232FA03F305D0214AD2
:108DD000106820EA03001060536100233E440191B3
:108DE00001A905932868CDE903331B4B029334F0A6
:108DF00035FD96F83431F02B0DD8AB884FF000429A
:108E0000B3FA83F332FA03F3C0D012490A6813436A
:108E10000B6007B0F0BD114BF0220321DC5786F840
:108E200034212046DE5D3BF099FC002CE5DB06F0AA
:108E30001F06012364090A4A03FA06F642F8246071
:108E4000DBE7014BE360A1E74D870008D8980408F1
:108E500030170120003C014000001110B01005083F
:108E600000E100E010B5044682B0806906236A463E
:108E700090F84C1110300EF04BFB58B1BDF80010BB
:108E8000BDF80220BDF8043049BA52BA5BBAE1819C
:108E90002282638202B010BD10B582B0044690F801
:108EA0004D1106236A4610300EF032FB70B1BDF84A
:108EB0000010BDF80220BDF8043049BA52BA5BBABE
:108EC000A4F8D010A4F8D220A4F8D43002B010BD79
:108ED0008269F0B592F8DC308BB00546012B32D0B8
:108EE000023B012B3AD892F84C31EC46D2F89C2048
:108EF00063F07F031B4C13708669D6F8A0305F1CAB
:108F00000FCCACE80F00D6F89C30CDE900370FCC81
:108F1000ACE80F0094E803008CE80300694606F112
:108F200010000EF05FFAAA69104650F8101F4B6A45
:108F3000834218BF002B14BF01230023002BFDD157
:108F40000B6A002BFCD1D2F8A0305A8852BAEA81C1
:108F50009A8852BA2A82DB885BBA6B8201200BB0F6
:108F6000F0BD00BF38990408F0B590F8DC308BB044
:108F70000446D0F8A050012B56D015D8D0F89C301C
:108F80004FF0FF3205211A605A609A60DA60D0F81B
:108F9000E030C0F8F010B3F57A7F5FD8032380F893
:108FA000DC3001200BB0F0BD023B012BF9D890F86A
:108FB0004D3100F1100ED0F89C20EC4663F07F0399
:108FC0003D4E1370D0F8A0305F1C0FCEACE80F0000
:108FD000D4F89C30CDE900370FCEACE80F0096E80E
:108FE000030076468CE80300694670460EF0FAF9F5
:108FF0002269536A9E4218BF002B14BF012300232D
:10900000002BFDD1136A002BFCD16B8801205BBAC9
:10901000A4F8D030AB885BBAA4F8D230EB885BBA46
:10902000A4F8D4300BB0F0BD90F84C2190F84D313D
:109030009B1A5B100133DBB235F8132005EB4305B7
:1090400053BAA0F8D0306B885BBAA0F8D230AB88A6
:109050005BBAA0F8D43001200BB0F0BD03691A7BD5
:109060002AB35B691BB390F8983003B390F84C3186
:109070000122D0F89C0063F07F03C4F8A4400F499C
:10908000037094F84D3194F84C0184F800211B1AB8
:1090900084F8DC20D4F8A0200733C4F8041101328E
:1090A000D4F89C10C4E93E23C4F8F41079E70223F5
:1090B00084F8DC3075E700BF3899040801800008A7
:1090C000836910B5074C04EB8303D3F85C0134F0DB
:1090D000D5FA0021B4F87C013BF0F4FB002384F8BE
:1090E0007E3110BD3017012080699C3034F0C6BA43
:1090F0002DE9F8430FF0BEF92F4E4FF0000C074654
:10910000DFF8BC802D4C716800294ADD00234FF444
:1091100086701D4600FB0362013392F805219942D7
:1091200045EA0205F6D145EA0C0C5FFA8CF9D8F84D
:109130000430C3F308038BBBEFF3118373BB4FF011
:10914000E02CD4F89030DCF81810D4F8902093423A
:10915000F7D1D4F880219142F3D8D4F884C14FF4E8
:109160007A7202FB0CF0401AB0FBFCF002FB030029
:10917000C31BB3F5FA6FCCBF4FF0000C05F0010C28
:10918000BCF1000FBFD1B9F1000F04D00B4B93F825
:1091900088214F2A08D04846BDE8F8830FF032F8FE
:1091A000E6E7E1460025C2E7B3F8902148460132E0
:1091B000A3F89021BDE8F883C801002030170120F2
:1091C00000ED00E02DE9F041304F07EB401898F832
:1091D00058340BB9BDE8F08100EB80030E46002146
:1091E000044607EB4313450193F8462583F84615DB
:1091F00088F83E2440F048FBB8BB3D442448A5F81D
:109200003C6400EB441040F01FFB3B78D5F854243D
:10921000A3B1D5F840140124D2F8AC308C4003F14E
:10922000C001420010F4004F90B202D15A682243AC
:109230005A600C339942F4D1BDE8F081D5F840145E
:109240000124D2F8AC3001F1100203F1C0019440C6
:10925000420010F4004F90B202D15A6822435A6083
:109260000C339942F4D1BDE8F0810A4B93F8F42114
:1092700002EB420203EBC203234493F8A161002EE8
:10928000BBD0012388F83E34B7E700BFC8010020F7
:10929000040600203017012010B504463FF07AFC88
:1092A0000146204689B2BDE810408BE72DE9F04128
:1092B00040F0DEFA80B31B4F7D68002D12DD38468A
:1092C000002410F8086BA046013416B1037F012B6F
:1092D0001DD04269AC4200F58670136843F001036B
:1092E0001360F1D10FF0C6F8D7F8444A002C0CDD1A
:1092F0000D4B03EBC4041968083333F8042CC86819
:109300009C4242EA0002CA60F5D1BDE8F08180F8D3
:10931000FC80FEF77DFFDCE739F0B4FB0028CAD102
:10932000BDE8F081C8010020100C00202DE9F84FA5
:10933000384F3B7813B90120BDE8F88F364D07F25E
:109340003C4ADFF8DC80002405F1C8064FF6FF79BF
:10935000D8F890B015E0B0F5606F4CD0A881B0EBB4
:1093600009012E4B4FF05C005A4618BF012100FB4B
:1093700004300DF005FE01340AF1200A1435082CE2
:1093800033D0D7F83834A3422FDDDAF81830DAF8C2
:109390000420D3E93D0140F083FA4FF6FE73984272
:1093A00098F8883114D04F2B04D1B8F88C310133A0
:1093B000A8F88C3156F8C03C484503F1010346F843
:1093C000C03CC8D156F8C43C013346F8C43CC6E79B
:1093D0004F2BD0D1B8F88E3101340AF1200A143560
:1093E0000133082CA8F88E31CBD10123012086F857
:1093F0003E30BDE8F88F98F8F43103EB430308EBF7
:10940000C303234493F8A1310D2BA7D18023AB775D
:10941000A5E700BFC8010020F811002000130020BC
:10942000301701202DE9F04790F8B23186B01C09C1
:10943000013C052C0FD8264E054603F00F0306EB22
:109440004402B2F8080140FA03F2D20703D595F8B6
:10945000BD71012F03D0012006B0BDE8F08707FAE7
:1094600003F33444DFF87080013B18403EF0F2FB18
:1094700094F81441044408EBC40958F83420B9F8AE
:10948000043010691840E7D0124B95F8B3A113448B
:1094900006EB932696F81C01002685F8BD6139F08D
:1094A00019FEB9F8043058F83400694600930223D5
:1094B000CDF814A001930496CDE902663DF0A6F91B
:1094C000D5F820213846136843F008031360C3E73A
:1094D000D89804080000FEBF2C190120F8B544F20A
:1094E0003B33054600F11004A0F84C31FFF748FC6F
:1094F00095F8D830072B5BD195F81D310226002B4B
:1095000058D1374680226B2120463DF081FF6420F0
:1095100011F04CFD0722682120463DF079FF6420C0
:1095200011F044FD00226B2120463DF071FF6420C4
:1095300011F03CFD01226B2120463DF069FF0F2018
:1095400011F034FD1B21FA0020463DF061FF0F2091
:1095500011F02CFD1C21F20020463DF059FF0F2098
:1095600011F024FD2846FEF75FFD1A210246204631
:109570003DF04EFF0F2011F019FD95F82021192123
:1095800020463DF045FF642011F010FD10223721E8
:1095900020463DF03DFF0F2011F008FD204601223E
:1095A00038213DF035FF0F20BDE8F84011F0FEBC3A
:1095B0000326A6E70327A5E738B544F23B3300F1BD
:1095C00010050446A0F84C31FFF7DAFB03226B21AB
:1095D00028460DF03DFF0F2011F01AFB10226A21E2
:1095E00028460DF035FF0F2011F012FB00226C21F0
:1095F00028460DF02DFF0F2011F00AFB94F82021D2
:10960000192128460DF024FF0F2011F001FB18222C
:109610001B2128460DF01CFF0F2011F0F9FA18222B
:109620001C2128460DF014FF0F2011F0F1FA102232
:10963000372128460DF00CFF0F2011F0E9FA012226
:10964000382128460DF004FF0F2011F0E1FA2046E2
:10965000FEF7EAFC1A21024628460DF0F9FE012029
:1096600011F0D6FA0A480DF0E5FCA0822046FFF77B
:1096700013FC94F9D230013308D194F9D03001337E
:1096800004D10620BDE8384011F0AABD38BD00BFA6
:10969000002D310110B50446FFF720FF10226A218A
:1096A000A0180DF0D5FE642011F080FC04480DF0E8
:1096B000C1FCA0820120BDE8104011F0A9BA00BF92
:1096C000002D310138B5802204466B210DF0C0FE1B
:1096D000642011F06BFCF52120460EF0AFF9054631
:1096E000012011F095FA682D1BD18C2120460EF037
:1096F000A5F918280DD8142834BF002503252046C5
:10970000072268210DF0A4FE642011F04FFC2846CA
:1097100038BDA0F15403DBB2072B34BF032500256D
:10972000EDE70025F3E7F52108B50EF087F970287D
:1097300018D008D8422817D0472817D0122814BFAD
:109740000020082008BDAC2812D006D800F0FD008B
:10975000712814BF00200620F4E7AF2814BF0020B2
:109760000920EFE70520EDE70C20EBE70D20E9E706
:109770000720E7E703682DE9F341197801290FD0A5
:1097800002296AD15A6A0AB1904266D11B6A002B3B
:1097900063D13122742102B0BDE8F0410DF058BE12
:1097A0003123424D85F8FC34036893F90420531C9F
:1097B00053D0032A51DC602303FB0253D3F8144532
:1097C000002C4AD093F85565202E46D1A46914F494
:1097D000004442D193F85465012E3ED090F80480A5
:1097E0002120D5F880C683F85505402083F854150C
:1097F00083F8560505F2FC40C3F85845A3F83E151A
:109800002B49C3F83805C3F840152A49C3F8481551
:10981000B3F83E1589B2FF2922D8B3F83E154FF0B0
:10982000007789B260204FEA480819235043F42298
:109830002E18A6F83C154146CDF800C0DFF880C0D0
:10984000604439F023FB78B1002386F85435B5F82D
:10985000843601339BB2A5F8843602B0BDE8F081AE
:10986000FF214FF08077DDE7D6F8142596F83C15F8
:10987000536823F07F7323F4583323F47F7323F06A
:10988000030343EA080343EA01430B493B435360A4
:10989000D6F8483586F854058B4203D007498B42E9
:1098A00018BFF22413681C431460D6E73017012058
:1098B0000000FFFF358C0308A98D0308B1AE030833
:1098C000441C012010B5044600683BF007F930B98C
:1098D0002046044AF7213BF059F8012010BD002032
:1098E000FCE700BF0407002008B503681A78012AC6
:1098F00005D00C4A00213BF049F8012008BD93F93E
:109900000430094A03EB430302EB431393F8552554
:10991000202A01D0002008BDD3F814359B691B0410
:10992000F8D4E6E754170120301701202DE9F84359
:10993000DDF820800F4616460021202204461D46F1
:109940003FF014FEB8F1000F0CD0D8F80030B8F892
:109950000A20E3811B0C2382D8F804306282E38260
:109960001B0C238338463EF005F9F30619D4431E39
:10997000B8B107EB000C01E0013B12D31CF801ED7C
:10998000BEF12E0FF8D1C01A03F10109421EB944ED
:10999000032AA8BF0322082BA8BF082390461A4613
:1099A00006E008280246B9464FF00008A8BF082282
:1099B0004FF0203339462046236063603FF062FD5C
:1099C00004F108031748424649462081A072184610
:1099D0003FF058FD04F1FF3C0346E21D1CF8011F57
:1099E000A1F1610E2039BEF1190F98BF8CF800105B
:1099F0006245F3D1184604F10B0110F8013BA3F1C5
:109A00006102203B192A98BF00F8013C8842F4D13A
:109A1000182365832D0CE6722373099BA582E361ED
:109A2000BDE8F883202020002DE9F04FDFF88C946A
:109A300087B0D9F89000C9F89400002B00F0DA80C4
:109A40001344154601F1200601F5FE77DFF870A4F6
:109A500003931FE0002D63D0D9F8C420AA4200F080
:109A6000CD80D9F8C020AA4200F00281D9E9322184
:109A7000AA424CD8A94200F2CF81691A184638F0A0
:109A8000CDFE0135039B06F5007607F500779D4274
:109A900000F0B080D9F8D040A6F12003AC42D9D86C
:109AA0002C1BD9F8E080E208D8F8301004F0070445
:109AB00002328A4203D3D8F838108A420DD941467F
:109AC00010460593049238F079FE8046DDE90423C0
:109AD000002800F0C181C9F8E00098F804100029BE
:109AE00040F03F81D8F828B0BBF1000F00F0AD8105
:109AF0001846D8F830304FF40071D21AD8F80C302C
:109B000004EBC20203EB42224346D847B9E7A9421D
:109B1000B3D918464FF4007200213FF027FDB0E79B
:109B20004FF40072294618463FF020FD802203467C
:109B3000D94886F89E210C2286F8A221D9F8C010B7
:109B4000D9F8B8208142C3F8C611C3F8CA2100F37E
:109B50006881D24B013AD24C83FB0103C81784FBC6
:109B600001C40B44C0EB6313C0EB2430CD4C84FB29
:109B700003C4C3EB831C86F8A1018010A1EB0C0188
:109B80001C4420F03F000131014386F8A011D91791
:109B9000C1EBE4110B4486F89F31BF4B9A4200F3AE
:109BA0004C81BE4BBE4883FB0213D11780FB0240A1
:109BB0001344C1EB6313C1EB2031BA4880FB03406F
:109BC000C3EB831486F8A5118910121B184421F0E9
:109BD0003F0101320A4386F8A421DA17C2EBE010F4
:109BE000034486F8A331552386F8DE31AA2386F88C
:109BF000DF3146E7002007B0BDE8F08F4FF0FF32BD
:109C00000024A6F11C00049383F8EC21214683F87C
:109C1000ED2183F8EE2183F8EF2152221A705A7059
:109C200061229A7083F8E7214122DA7083F8E621F5
:109C3000722283F8E42183F8E521D9F8D820C3F80B
:109C4000E8214FF4F0723FF091FC049B5522C6F8D6
:109C5000D041C6F8D441C6F8D84183F8FE216FF050
:109C6000550283F8FC4183F8FD4183F8FF2108E7A2
:109C70008D4C00214FF4007218463FF077FC0346EC
:109C80004FF0000C022203CC46F8191CEB2146F8D9
:109C90001D0C082006F8201C582106F81F1C9021D6
:109CA00006F81E1CF8211A7383F80BC006F8130C73
:109CB0009A7383F80FC006F8102C06F80B1C83F873
:109CC0002C20D9F8C010D9F8B82083F819C0521A3E
:109CD00083F81BC083F81DC01A6283F81EC083F886
:109CE0001FC083F82DC083F82EC083F82FC0D9E998
:109CF0003212521A80215A623F221A764FF0FF32F6
:109D00009A763E221A77012283F8302083F831C0F8
:109D100086F820102921654B86F82210942186F8B8
:109D2000260086F823100E21614A86F824100D21A2
:109D300086F82510552186F8DE11AA2186F8DF1154
:109D400003CBC6F82B101988C6F827009B78A6F815
:109D50002F1086F8313003CAC6F83200C6F8361024
:109D60008FE64FF40072184600213FF0FFFBD8F851
:109D700040200346002C76D1002A00F0A380D8F8BA
:109D8000303011224B49CDE90044FFF7CFFDD8F820
:109D900040301A6C002A00F0A1801B6BCDE9004412
:109DA0001122454930464FF4E07BFFF7BFFD06F135
:109DB0002003D8F84480B8F1000F3FF462AE03F1FD
:109DC00020049B44049523464446984610E05CF8E2
:109DD0001C1B0025236BCDE900C5FFF7A7FDABEBEE
:109DE0000803A46C08F12008002C18BF1F2B51D9C0
:109DF0002379A44604F11C0E1122A8F12000002BA7
:109E0000E5D162792569236B42F021022168CDE911
:109E100000E5FFF78BFDE2E7A91A184638F0FEFCD3
:109E20002FE6FF23013A86F89F3186F8A13186F8A4
:109E3000A031194B9A427FF7B4AEFF2386F8A331C5
:109E400086F8A53186F8A431CDE6594618464FF478
:109E500000723FF08BFB14E6A6F1240343F804AF35
:109E60009F42FBD10DE6002AD8F844800CBF0122A6
:109E70000222C2EB0414B8F1000F3FF402AE4246D6
:109E8000013C926C002C01DD002AF9D190464FF480
:109E9000007B90E7049DF4E5FF03FB00832008822C
:109EA0009755454181808080F00F0508FC0F05081B
:109EB00008100508E80F0508EC0F05083017012009
:109EC000DEADBEEF23460822D9F8BC104FF4F07B7C
:109ED000CDE90044FFF72AFD33466AE72346CDE982
:109EE00000445DE7BFF34F8F0549064BCA6802F493
:109EF000E0621343CB60BFF34F8F00BFFDE700BFAD
:109F000000ED00E00400FA05014B53F82000704713
:109F1000502800402DE9F041CB781BB9002630468F
:109F2000BDE8F08100F110070C46054689783846F7
:109F30000DF0A0F806460028F0D0E0780DF018FFEC
:109F4000A86123780133DBB210B1C371222383717E
:109F50000D210DF079FFA8690DF086F8104AD2F8AE
:109F60009030632BFBD90F480DF064F8DFF83C808C
:109F70000D4BA88202E058F8043B53B1384698478D
:109F800003460028F7D0286985F8D8303DF02CFA30
:109F9000C5E7E0781E460DF0EBFE0DF075FFBEE75D
:109FA0003017012040420F00C5960008009A0408AF
:109FB00030B490F8443000F10801484A012BC2F84F
:109FC00088166ED083684649DC68464D24F46004E8
:109FD000AB42DC60DC6844F46004DC609C6B24F41D
:109FE00040149C639C6B44F480149C639C6B24F42D
:109FF000F8449C639C6B44F488449C639C6824F400
:10A0000070249C609C689C609C6824F440149C6054
:10A010009C689C605C6824F480645C605C6824F4E8
:10A0200080545C605C6901EA0401596159695961B5
:10A0300047D0DC682A4924F0E064DC60DC6844F046
:10A04000E064DC609C6B24F440149C639C6B44F4DF
:10A0500080149C639C6B24F478249C639C6B44F474
:10A0600010249C639C6824F470249C609C689C6011
:10A070009C6824F440149C609C689C605C6824F498
:10A0800080645C605C6824F480545C609C6921405E
:10A09000144C9961A3429969996118D0002380F802
:10A0A00044301148114B848DC18D408D091BC2F87D
:10A0B0009046C2F88C0693FBF1F330BCC2F894369C
:10A0C00070470B4C616841F400016160B1E70849D9
:10A0D0004B6843F400034B60E0E700BF30170120FA
:10A0E00000F0FFFF00200140007AF01F80380100DF
:10A0F00000230140704700BF014833F0CFBC00BFD0
:10A10000441C0120084810B4D0F81435D0F8484554
:10A1100099691A682CB1234600F214505DF8044B7B
:10A1200018475DF8044B704730170120014833F0A1
:10A13000B5BC00BFA41C0120084810B4D0F8743589
:10A14000D0F8A84599691A682CB1234600F27450DA
:10A150005DF8044B18475DF8044B70473017012039
:10A16000014833F09BBC00BF041D0120084810B417
:10A17000D0F8D435D0F8084699691A682CB123462E
:10A1800000F2D4505DF8044B18475DF8044B70475B
:10A19000301701202DE9F84FD94F6023044603FB07
:10A1A0000073D3F80055002D00F0A681D3F80865A0
:10A1B0001EB1B379002B40F09F81602303FB047331
:10A1C000D3F80C95B9F1000F04D099F80630002BA4
:10A1D00040F09281631CDBB216B11522F371B271AB
:10A1E000B9F1000F04D0162289F8073089F806204B
:10A1F000287C4FF0090838F06DFF30460CF034FF32
:10A2000048460CF031FF112130460DF01DFE1121A2
:10A2100048460DF019FE4FF0330A02E00A2010F014
:10A22000F7FC30460DF072FD10B9BAF1010AF5D114
:10A2300030460CF013FF052010F0EAFC30460CF01D
:10A2400013FF052010F0E4FCB8F10108E3D130461B
:10A250004FF0600B0CF002FF052010F0D9FC4846CF
:10A260000CF0FCFE0BFB04FB052010F0D1FC30468B
:10A270000CF0FAFE07EB0B0A052010F0C9FC48466B
:10A280000CF0F2FE9AF8103530460422002B9D4E59
:10A2900014BF3E211E210DF0B7FD9AF810355E4423
:10A2A0004846002B4FF00402C14614BF3E211E2138
:10A2B0000DF0AAFD4C22414630463FF057F9DAF83E
:10A2C00000359FED917AB0EE084A5B68F7EE003AF0
:10A2D000BAF812B5CAF814358C4B9FED8D5A9A68AE
:10A2E0008C4BC2F38222134493F83021D7F8EC3020
:10A2F000D34007EE903AF8EE677AC7EE275A07EE9A
:10A3000090BA9FED857AF8EEE77AC7EE274ADFED3F
:10A31000837AB0EE007AE5EE877AA5EE875A25EECD
:10A32000844A37EE856A74EEE72ABBF5C87F40F2AF
:10A33000145309F1010ED7BF1946322364234FF499
:10A340009670C8BF782007EE90EAD4BF4FF4167C11
:10A350004FF4827C0344B8EEE77AC8BF4FF4FA7139
:10A3600007EE903A27EE257A01EB0C03F8EEE76A48
:10A3700086EE873A73EE636AFCEEE67A17EE902A71
:10A3800007EE90CAB8EEE73A07EE903AF8EEE77AB1
:10A3900023EE243AC3EE276A36EEC53A72EEE66A39
:10A3A000C3EE077A77EEE37AFCEEE77A17EE901ABF
:10A3B000C6EE877A77EEE37AFCEEE77A17EE903A0C
:10A3C00003F1020C0CEB010AF0EE466A07EE90AACC
:10A3D000F8EE677AE7EE276AF4EEE64AF1EE10FA55
:10A3E00000F38C805FFA82FCBCF10F0F00F29C80BE
:10A3F000323807EE900AF8EEE77A77EEC47AC7EEC5
:10A40000876AFCEEE67A17EE90CA5FFA8CF00F28A6
:10A4100000F28A8088B2FF2800F2868098B2FF2876
:10A4200000F2828040EA097310054FEA0C4200F006
:10A430007F6002F47F0203431343394A02EA012199
:10A4400043EA01086020012300FB04740027304622
:10A45000C4F82035C4F81885C4F81C75C4F82475F0
:10A46000C4F82875C4F83075C4F834753CF0E6FBC0
:10A4700094F85535202BD9B21AD194F85435012BC4
:10A4800016D0242384F85535D4F814351A6822F0F0
:10A4900001021A601A6822F480521A601A681A605F
:10A4A0001A6842F001021A6084F8551584F8547550
:10A4B000002195F912003AF051F995F91230AA7C71
:10A4C000002B07DB02F01F0101225B098A401549BE
:10A4D00041F82320002195F911003AF03FF995F950
:10A4E00011306A7C002B07DB02F01F0101225B099F
:10A4F0008A400C4941F82320BDE8F88F013161E71B
:10A5000030170120441C0120286B6E4E0038024099
:10A5100000001643D89804080024744900007042D3
:10A5200000FFFF0000E100E0BEF10F0F8AD0F1460E
:10A53000FBE600BF0348D0F890300BB180301847DD
:10A54000704700BF000001200348D0F8B4300BB1C1
:10A55000A4301847704700BF000001200348D0F81E
:10A56000D8300BB1C8301847704700BF0000012039
:10A570000348D0F8FC300BB1EC301847704700BFEF
:10A58000000001200348D0F8203113B100F5887095
:10A5900018477047000001200348D0F8443113B138
:10A5A00000F59A7018477047000001200348D0F862
:10A5B000683113B100F5AC701847704700000120F6
:10A5C0000348D0F88C3113B100F5BE7018477047BE
:10A5D000000001200348D0F8B03113B100F5D0706D
:10A5E00018477047000001200348D0F8D43113B158
:10A5F00000F5E27018477047000001200348D0F8CA
:10A60000F83113B100F5F4701847704700000120CD
:10A610000348D0F81C3213B100F503701847704797
:10A62000000001200348D0F8403213B100F50C704F
:10A6300018477047000001200348D0F8643213B176
:10A6400000F5157018477047000001200348D0F846
:10A65000883213B100F51E701847704700000120C2
:10A660000348D0F8AC3213B100F527701847704793
:10A67000000001200138074B074A00EBC00003EB44
:10A680008000D0F8800090420CBF9520962038F0D2
:10A6900021BD00BF000001200060024001382DE90B
:10A6A000E84100EBC000134D1E46134B05EB80053F
:10A6B00090460F46D5F8800098420CBF9520962012
:10A6C00038F008FD95F995004FEA9811C5F890709B
:10A6D000C5F898603AF042F895F99530002B07DB01
:10A6E00003F01F0001225B090449824041F8232046
:10A6F000BDE8E881000001200060024000E100E0C8
:10A70000AB4B2DE9F04F97B093F8AA86A94B0025E3
:10A71000A94F0093A94BA3F5D06ADFF8B892DFF8F0
:10A72000B8B24E46B30AA3F58013522B55D8534402
:10A7300093F838310D2B50D8B8F1010FFC5640F08A
:10A740001D81012C3FD14FF000094946204611F0F0
:10A75000AFFA11F035FB90F800C0BCF1000F18BF44
:10A76000BCF1540F14BF4FF0010C4FF0000C40F03F
:10A77000018109F104091FFA89F9B9F1100FE4D137
:10A78000002D00F0B9808B4A00210DE0534493F86E
:10A7900038310D2B0FD8FB56A3420FD0013102F5F3
:10A7A0008672A94280F2A480906803689B0AA3F590
:10A7B0008013522BEAD90023A342EFD143799BF8AF
:10A7C00005009842EAD17D4B5B4513D05BF8206FC2
:10A7D000B30AA3F58013522BA9D9B8F1010FF2D017
:10A7E00001230024B8F1020FADD1002BABD0734B85
:10A7F0005B45EBD1009B013503F58673042D009377
:10A800008BD16F4B4FF00108DFF8D0B1009303F507
:10A810007C73ABF23C4A059308F1FF33DAF8382435
:10A820009A4262DDDBF80C60002E00F0C3833168D1
:10A83000B78801F13F41B7FA87F701F57E01C7F10B
:10A840001F07890ADAF80450002D40F3CB80594BDA
:10A85000002405E0013403F58673AC4200F0C080AB
:10A860001A688A42F6D14FF48673524ACBF80470C4
:10A8700003FB04245FFA88F3CBF8184016B1F37198
:10A880000323B3717A000321012301FA02F0A16CC2
:10A8900003FA02F20143A164216D0A4322659AF88A
:10A8A0000020002A6FD0626DBB401A43626516B16A
:10A8B0003268B188916199B20122D4F8AC00FDF7F9
:10A8C000C7FB204608F10108FDF7A2FC0123009A0E
:10A8D000B8F1090F8BF81C300BF1200B0BF8033C7F
:10A8E000537402F11803009396D117B0BDE8F08FAE
:10A8F000BCF1000F7FF467AF58460DF0AFF99BF83D
:10A900000540C3B2022B00F25D83431C2D4A5BB2AB
:10A9100003EB430398002C4B03F5727104E099425A
:10A9200000F0508353F82C2FB242F8D11A79A2428A
:10A93000F5D11A58002AF2D094460023234A5168D0
:10A940000133614513D0102B02F12402F7D14FF0EF
:10A95000FF3303EBC3031E4A02EB830393F89C30DF
:10A96000002B7FF430AF009BC3F808B042E7DBB2A6
:10A97000013BEEE7002D7FF406AF24E7B4F10803B6
:10A9800018BF01232EE707F110029340626D1343B5
:10A9900063651EB1B38832681B04936101210022F4
:10A9A000D4F8AC00B94089B2FDF752FB89E700BF8B
:10A9B00030170120D001002094100508589F04088A
:10A9C0002816002000000140649A0408800001203D
:10A9D0000000012000040140589E040804060020E5
:10A9E000032C67DC4FF4867303FB05A3186900286A
:10A9F00000F0D68299600131CAB283F81121029227
:10AA0000542283F810216B1C0268CAF80430447980
:10AA100001920DF023F9A24B864693F8BF360393BB
:10AA20009BF810300493C3B2022B00F2CB8200F1EA
:10AA3000010C9C499C4800234FFA8CFC019A0CEBBA
:10AA40004C0C4FEA8C0C05E00133172B00F0BA8256
:10AA500051F82C0F8242F7D10879A042F4D151F875
:10AA60000C000028F0D02C210EEB4E0EDFF86C927B
:10AA700001FB03F38D494C4603EB8E030B44D3F8E3
:10AA80009C114FF4867303FB05A3C3E90701002162
:10AA9000636898421FD0013124341029F8D1844BC7
:10AAA00093F8782052B90299542283F8791083F8E8
:10AAB000782003E003237A4A82F8BE367D4B7E4835
:10AAC0007E497F4AC3F85003C3F84813C3F858239C
:10AAD00017B0BDE8F08F4B1C7549DBB2013B03EBAF
:10AAE000C30301EB830393F89C1006910029E5D181
:10AAF000029983F89D104FF4867101FB05F08C21BB
:10AB00000446542083F89C002046A3106D4C01900D
:10AB1000504404FB03F33468C0F80011C46003FB25
:10AB200001F1059C03EB430304EB410103EB031329
:10AB3000C0F8FC10644901EB8303C0F8B430332340
:10AB4000C0F8B830614B01981C18554BD3F8EC1085
:10AB5000039B062B00F02182072BDFF884C15C4B9E
:10AB60005C4808BF18465C4B08BF6346B1FBF3F373
:10AB7000B1FBF0F110465A1E4FF48673013992B2C0
:10AB800003FB05A3A3F8BC10A3F874200293019B58
:10AB90002266002203F158014C4BA4F858201944B6
:10ABA0006266E2653BF0AEFD029B1A691068029294
:10ABB000036843F08003036053790C2B08D8DFE867
:10ABC00003F06707070760070707580707075000E4
:10ABD0004FF4867303FB05A359694FF0600C0268BC
:10ABE00000234FF0020ECDF838C04FF4807C22F0E5
:10ABF00001021093CDF850C04FF0010C1393CDF823
:10AC00003CC04FF00A0C1593CDE911CE02600EAA9C
:10AC10003BF036FC4FF48672029B02FB05A25169A1
:10AC20001A680023012900F08081042900F07D8149
:10AC3000102900F0BA81402900F07781B1F5807FBA
:10AC400050D0B1F5806F4DD0B1F5805F00F0B68186
:10AC5000B1F5803F4FF03C030CBF08214FF4006179
:10AC600042E04FF486734FF4805103FB05A3596112
:10AC7000B3E74FF486734FF4807103FB05A359616A
:10AC8000ABE74FF48673102103FB05A35961A4E7DA
:10AC90004FF48673012103FB05A359619DE700BFB3
:10ACA00030170120649A040800000140D898040875
:10ACB00000000120C01200201D5D0108195D01087F
:10ACC000255D01086B4CA407E8160020D001002088
:10ACD0001055220044950800D0DD060080000120B8
:10ACE00040771B000821042302F1180050F803C02C
:10ACF00041EA0C01C150029B1879002840F01E81E6
:10AD00004FF48672002302FB05A21069D169006826
:10AD1000026842F001020260D9F804200133914236
:10AD200000F00881102B09F12409F5D14FF0FF3311
:10AD3000A74A03EBC30302EB8303D3F88000A54BC0
:10AD400098420CBF9520962038F0C4F94FF48673D2
:10AD500003FB05A31A6953790C2B00F2E8809E4986
:10AD600001EB4303B3F8A0C64FF4867310689B4908
:10AD700003FB05A3A3F818C0002306E0904200F0EF
:10AD800017810133042B00F0208151F83320002A71
:10AD9000F4D1DAF8442A0132CAF8442A0AEBC30291
:10ADA000DB00C2F8480A1944069823469022B1F8FD
:10ADB00004E0DFF840924CEA0E0CA1F804C0884988
:10ADC000FFF76CFC4FF486734FF4403C402103FBCB
:10ADD00005A50023E869026842F0100202600268DB
:10ADE00042F014020260C4F8A830C4E91F33C4E979
:10ADF000283304232A6AC4F898C04FF4804CC4F85E
:10AE00009C304FF48063A167C4F88430C4F8942068
:10AE1000D5F8B820C4F89020C2B220F0FF00103A54
:10AE2000A9FB0231EA68019B1832090922674FF435
:10AE30008052C4F8882003F170026A4B1A44D5F896
:10AE4000B430C4F88CC063673BF094FDE869019BA3
:10AE50004FF40031D0F800E04FF4006C03F1B80279
:10AE6000604BC4F820E0D0F814E01A440023C4F882
:10AE700024E0D0F804E0C4F828E0D0F808E0C4F8F2
:10AE80002CE0D0F80CE0C4F8C830C4F830E0C4F8C6
:10AE9000F030C4E93033C4E93A332B6A0193042318
:10AEA000C4F8E4304FF48063C4F8CC30019BC4E9AB
:10AEB0003731D5F80031C4F8D830C3B220F0FF00E4
:10AEC000103BA9FB0331EB68C4F8D0C0103309096B
:10AED000C4F8B830D5F8FC3001934FF48043C4F87F
:10AEE000D430019BC4F8BC303BF044FDEA695FFA02
:10AEF00088F3116861635169A1635168E1639168E6
:10AF00002164D1686164116841F010011160116819
:10AF100041F014011160049ACBF804708BF81020F2
:10AF2000CBF80C60CBF81840A9E40821DCE64FF020
:10AF3000000C19E7DBB20693013BF9E603920CF033
:10AF400017FF039A20B30268234B02F13F42079098
:10AF500002F57E0203EB9222029B92F81C011A7A00
:10AF6000039238F0B7F8079B039A99880D92002254
:10AF700018680C92089108A90393CDE90A220222CD
:10AF800009923BF043FC5422039BDA80029B1A682F
:10AF9000536C43F400435364B2E61348134BE5E5A6
:10AFA0000223134A82F8BE3688E54FF400619BE61F
:10AFB000DB00F8E64FF0FF37394643E44FF4006119
:10AFC000042391E600235B68FFDE00239B88FFDEFD
:10AFD0000000012000600240D8980408100C0020F6
:10AFE0009D800008D0010020882A1100A0BB0D0020
:10AFF00030170120ABAAAAAA2DE9F041834DC0EB7E
:10B00000001605EBC606D6F8C036002B00F0BC8053
:10B010000446070196F8300738F05CF896F83037A8
:10B02000012203F01F015B09013B8A40032B0AD870
:10B03000DFE813F0E0000400E600DA0074494B6A30
:10B0400023EA02024A623B1B04F1010805EBC30339
:10B050005FFA88F893F8C4060CF08AFE18B1122340
:10B0600080F8078083713B1B05EBC30393F8C5068B
:10B070000CF07EFE064618B1132380F8078083711A
:10B080003B1B05EBC30393F8C6060CF071FE18B129
:10B09000142380F8078083713C1B2E21304605EB7A
:10B0A000C40494F8C8260CF0AFFE94F8C6060CF061
:10B0B0005FFE94F8C9260E210CF0A6FE94F8C40693
:10B0C0000CF056FE94F8C7262E210CF09DFED4F805
:10B0D000C03650491A688B4222F040021A6055D09F
:10B0E0004D4A934269D002F58062934258D1484A52
:10B0F000116A41F400411162116A21F400411162A8
:10B100005A6842F480525A601A68520634D443494D
:10B110001E68D1F8D442D1F8E002D1E9B025B0F5EB
:10B12000005F42EA0502D1F8CC5242EA0502D1F8AA
:10B13000D05242EA0502D1F8D85242EA040242EA69
:10B140000502D1F8DC5242EA0502354D42EA00021E
:10B1500005EA060542EA05021A60D1F8C8225D68D0
:10B1600042EA14422F4C04EA050442EA04025A60FF
:10B1700002D1B1F8E4221A61DA6922F40062DA61DC
:10B180001A6842F040021A60BDE8F081204A516A14
:10B1900041F480515162516A21F480515162AFE70C
:10B1A000214A934213D11A4A516A41F40051516223
:10B1B000516A21F400515162A2E7154A116A41F423
:10B1C00080411162116A21F48041116298E7174AA7
:10B1D000934295D10E4A516A41F480115162516AED
:10B1E00021F4801151628BE709490B6923EA0202BD
:10B1F0000A6128E706494B6923EA02024A6122E70D
:10B2000003490B6A23EA02020A621CE73017012095
:10B2100000380240003001400038004000000120AA
:10B220004000FFFFFBF0FFFF0034014000500140F1
:10B2300030B40469002341684025E46882690C3118
:10B24000546244699560536093631160C2E90333AB
:10B25000C2E90533C2E90733C2E90A33C2E90C3354
:10B2600084B1C269E068936350621160C2E901333E
:10B27000C2E90333C2E90533C2E90733C2E90A333D
:10B28000C2E90C3330BC7047114A037A0168D35CC1
:10B2900010B4CC58CA1824F00104CC501368DB0752
:10B2A000FCD4037D1F2B09D9203B20225DF8044BE1
:10B2B00002FA03F343F01803CB60704720225DF8D5
:10B2C000044B02FA03F343F018038B60704700BF8E
:10B2D000A4100508F0B50668356A00295CD12F680E
:10B2E000AC68D6F818E0002F5FD0364B3B40B3F186
:10B2F000005F61D007F01F0104F11F0327F01F0258
:10B30000194421F01F01BFF34F8F00290BDD1144B9
:10B3100002F12003DFF8B0C08B42CCF868221A4655
:10B3200003F12003F8D1BFF34F8FBFF36F8F036892
:10B330004FF48062CEF80470CEF814205B69CEF82A
:10B34000204043B36868F669002837D01D4B03409E
:10B35000B3F1005F1AD000F01F0220F01F011F326E
:10B36000224422F01F02BFF34F8F002A0ADD0A4455
:10B3700001F12003144D9A42C5F87012194603F1E9
:10B380002003F8D1BFF34F8FBFF36F8F4FF480636B
:10B39000706073613462F0BDEC69002CFBD06F69A2
:10B3A0001435D6F818E0002F9FD1084A3346CEF85E
:10B3B0001470CEF80420C1E73346B9E7044B70613E
:10B3C0007360E7E70000FFFF00ED00E044000020AD
:10B3D00048000020F8B507680646D7E90454002C59
:10B3E00050D0A0612B7D1F2B39D82022286802FA6B
:10B3F00003F343F018038360237D1F2B3AD92022E7
:10B40000203B02FA03F3226843F01803D360636819
:10B41000002269680A601A601A6842F010021A6015
:10B42000BA69297A3BF0A6FAFA69217A20683BF0DA
:10B43000A1FA2A7A2A492F6833688D5C5A687B59A9
:10B44000206843F001037B51237AC95C435843F0E1
:10B4500001034350536843F003035360F8BD203B9E
:10B460002022286802FA03F343F01803C360237D07
:10B470001F2BC4D8202202FA03F3226843F01803DA
:10B480009360C4E72A7D6B681F2AA8611FD820211A
:10B49000286801FA02F242F0180282600021BA69BB
:10B4A0001960196841F010011960297A3BF062FABD
:10B4B0002A7A0B4933682868895C5A68435843F0F4
:10B4C00001034350536843F002035360F8BD203A30
:10B4D0002021286801FA02F242F01802C260DDE77A
:10B4E000A4100508014B43F8201070475028004075
:10B4F000F0B5A24CA5B0E368022B00F03A82A04858
:10B50000A04AA149121A3DF0BDFFA048A04AA14996
:10B51000121A3DF0B7FFA368012B00F2C28003EBC3
:10B5200043039D4A9D4D02EB430032F813204188AE
:10B530008388C5E9BA21C5F8F032994C994E9A4BE7
:10B54000B2FBF1F2994901FB02F20021C6F8EC20AE
:10B55000D4F8882042F47002C4F888201A6842F0B7
:10B5600001021A609960924A1868024091481A6074
:10B57000C0F30807904A5A601A6822F480221A60C1
:10B58000D96007B1FEE78D49A0604FF6FF000A6859
:10B590008B4B42F400720A60E26802401343E3609E
:10B5A00039F070F9BFF34F8FBFF36F8FC4F850724B
:10B5B000BFF34F8FBFF36F8F636943F40033636151
:10B5C000BFF34F8FBFF36F8FC4F88470BFF34F8FFB
:10B5D000D4F8803043F6E07CC3F3C90EC3F34E3396
:10B5E000580100EA0C01734641EA8372013B5F1C7B
:10B5F000C4F86022F8D1203810F1200FF1D1BFF348
:10B600004F8F636943F480336361BFF34F8FBFF3A0
:10B610006F8F6A49644B0A6842F480720A60196C41
:10B62000684A41F080511964196C01F0805102910F
:10B630000299116841F4404111601268D5F8E8029E
:10B6400002F44042D5F8EC42D5F8F0120192019A8A
:10B650009A6802F00C02042A00F08D809A6802F0C9
:10B660000C02082A00F083804F4A136843F48033A9
:10B670001360D6F8807604E0D6F88036DB1B642BA6
:10B6800074D813689B03F7D5474A936803F00C03FB
:10B69000082B6BD0136823F080731360D6F8807684
:10B6A00008E03E4DD5E9BA2147E7D6F88036DB1BE6
:10B6B000022B5BD813689B01F7D40B06640843EA9E
:10B6C0008013611E43EA01433F491943364B5160E1
:10B6D000116841F080711160D6F8801604E0D6F848
:10B6E0008026521A022A41D81A689201F7D5196C9D
:10B6F000344A41F0805119641B6C03F0805303936A
:10B70000039B136843F480331360D6F8801606E079
:10B71000D6F880365B1AB3F57A7F00F2CB80536897
:10B72000DF03F5D51368274943F400331360D6F8D7
:10B73000802606E0D6F880369B1AB3F57A7F00F2B1
:10B74000B9804B689C03F5D54FF400124FF00063AD
:10B7500004A804924FF4C07221930723CDE9082373
:10B7600003230A9332F05EFA80B3FEE7FEE75B68DC
:10B770005A027FF579AF0C4B1B6885E750280040D3
:10B7800000000000983D00003891050800000020EE
:10B79000C801002091E70508949F040800000120DB
:10B7A00000ED00E0301701200038024040420F0059
:10B7B000FFFFF6FE0000000810300024003C0240AD
:10B7C0000003FA0500700040080040206C4A13682E
:10B7D00003F00F03062B0AD8136823F00F0343F07E
:10B7E00007031360136803F00F03072B63D1654B46
:10B7F0009A6842F4E0529A609A6842F460429A6011
:10B800009A6822F0F0029A601A68900153D59A68FB
:10B8100041F2883122F0030242F002029A60D6F827
:10B82000800604E0D6F88026121A8A4243D89A6825
:10B8300002F00C02082AF5D1514A136819070AD5FB
:10B84000136823F00F0343F007031360136803F03A
:10B850000F03072B2FD14B4C4B4FA36823F4E0531E
:10B8600043F4A053A360A36823F4604343F400436C
:10B87000A36032F0A3F9A368C3F303133B4493F826
:10B88000C836D840C6F8EC0038F0FCFF002304A806
:10B89000CDE91333CDE91533CDE91733CDE91933AC
:10B8A000CDE91B33CDE91D33384B049332F0BAF99F
:10B8B00010B1FEE7FEE7FEE702234FF0007204A896
:10B8C000CDE90633D823CDE9042301230B9332F0CD
:10B8D000A9F900B1FEE7D4F88C3023F08073C4F8E6
:10B8E0008C30D4F88C3043F08073C4F88C30A3686B
:10B8F00003F00C03042B36D0082B18D0244BC6F8C9
:10B90000EC30204AD5E9BA31B3FBF1F39168D6F8AF
:10B91000EC20C1F303110F4497F8C816CA401D4923
:10B9200001FB03F3C6F8EC20934220D0FEE76368E6
:10B93000626813F4800F636802F03F0218BF164973
:10B94000C3F3881308BF1249B1FBF2F202FB03F301
:10B950000C4A5268C2F3014201325200B3FBF2F3C7
:10B96000C6F8EC30CDE70C4BC6F8EC30C9E725B093
:10B97000F0BD00210320FFF7B5FDFEF7B3FA00BFCD
:10B98000003C024000380240D8980408C0FF030081
:10B990000024F40040420F0000127A001D4B1E48A4
:10B9A000196C1E4A41F0805130B4196482B0196C90
:10B9B000FF2401F0805101910199016841F48071E7
:10B9C0000160CA20196C41F480611964196C01F49A
:10B9D000806100915321009D5462506251625B6FFF
:10B9E000DB000DD40E4B00210E4A43F8041B93429A
:10B9F000FBD10D4B0D4AC3F8502802B030BC704744
:10BA0000094A0A4BD2F850289A42EBD102B030BC16
:10BA1000704700BF0038024000700040002800401E
:10BA2000542800406C2800400020004031666542E8
:10BA3000800AA0F58010522808D8054B184490F8C9
:10BA400038310D2B02D8034AD0567047002070477A
:10BA5000D898040894100508F0B50446D0F894006E
:10BA6000434B83B0A16804F1640204F118070E6827
:10BA7000C1B220F0FF0001921039A3FB0131090986
:10BA80003AF0C2FF616D0023019A012984F8583011
:10BA900018D0042916D0102955D0402912D0B1F55C
:10BAA000807F53D0B1F5806F50D0B1F5805F55D015
:10BAB000B1F5803F4FF03C030CBF6FF0080C6FF402
:10BAC000006C01E06FF0080C06F118053046E958EB
:10BAD00001EA0C01E950616D3AF0D2FC636D012B73
:10BAE00016D0042B14D0102B0FD0402B10D0B3F550
:10BAF000807F2FD0B3F5806F2CD0B3F5805F31D02D
:10BB0000B3F5803F06F1540502D04FF4006100E028
:10BB100008212B683A46D4F894000B4340212B604F
:10BB20002162C1B2124B20F0FF001039A3FB01319A
:10BB300009093AF01FFFD4F89420136843F010036A
:10BB4000136003B0F0BD6FF4006CBDE76FF0080C3C
:10BB50000423B9E706F11C050821DAE76FF4006C4D
:10BB60000423B1E706F11C054FF40061D1E700BFE3
:10BB7000ABAAAAAA944B2DE9F04F1C782DED028BAD
:10BB800085B034B90124204605B0BDEC028BBDE878
:10BB9000F08F8E4B8E4FD3F8903008EE103A0CF0A9
:10BBA00069FC97F8EC3B0190002B00F00681864B76
:10BBB00007F1400AA7F1C804002603F2445B5D4682
:10BBC000CDF80CB0D7F82833019AD31A03D4EA6D14
:10BBD0009A4200F3D5807C4A06EB860302EB4313BE
:10BBE00093F89C3503F0FF020092002B00F08E804A
:10BBF000D5F89410AB6877481A68CBB221F0FF01F2
:10BC0000103BA0FB030374481B09C35C19444B6839
:10BC1000A9891FFA83FED368CEF1160E23EA010329
:10BC2000BEF1070FD36071D957F8C03C0022012143
:10BC3000013390468B4647F8C03CD5F89C309C4673
:10BC400002935CF8049B48461DE0DCF80090B8F1D4
:10BC5000140FA9EB000348461EDC13F1080948BF86
:10BC600003F117094FEA291308EB291803F1FF39EB
:10BC7000013102FA03F30CF1040C0BFA09F28E45C0
:10BC800042EA030208D38E45DFD8C8F11503DCF879
:10BC900000004FF01508E9E7B8F1150F67D14F49DB
:10BCA000C2F38423C2F3441001EB830301EB800051
:10BCB000D3F8D836D0F8D8061B0243EA001302F0B6
:10BCC0001F00C2F3C43201EB800001EB8202D0F806
:10BCD000D816D2F8D8260B4343EA023383EA13225C
:10BCE00082EA121202F00F020F2A40D1C3F30F139F
:10BCF0004FF6FF7293423AD0B3F5606F47D0A381FD
:10BD0000009918EE102A50460BF03AF928460136F1
:10BD1000FFF7A2FE97F8EC3B0AF15C0A1434B34239
:10BD200005F1A0053FF74EAF01210022DDF80CB070
:10BD300087F83E10C7F82823002B3FF423AF03EB0E
:10BD400083030BEB43139BF810200BF1A00B5BF864
:10BD50004C0C12F0020F5BF8982C11680A6A14BFA1
:10BD600042EA800202435B450A62ECD10AE757F8D7
:10BD7000C43C013347F8C43CC6B100230093BFE77D
:10BD80000024204605B0BDEC028BBDE8F08F0F49C2
:10BD900091F8F42102EB420201EBC202324492F824
:10BDA000A1210D2AABD18023A377A9E702995822BC
:10BDB0000B483DF067FB0096A2E70122C7F8283345
:10BDC00087F83E20DFE600BFC801002030170120C1
:10BDD000C0120020ABAAAAAAA4100508D89804088B
:10BDE000A4120020830AA3F58013522B45D8F0B586
:10BDF0000446624885B0034493F838010D283AD8C8
:10BE00005F4D860105EB8013D3F8A078A74232D0AE
:10BE10000139C3F8A04889B2C3F8AC18D5F8EC10C2
:10BE2000B1FBF2F2013AC3F8A42805F50A6202EB6D
:10BE300080100022C3F8B028C3F8A828C3F8B4289B
:10BE400032F056F94F4B9C4218D0B4F1804F15D0C8
:10BE5000A3F57C439C4272D003F580639C426ED074
:10BE6000494A03F57C439C4218BF944246D003F5EF
:10BE700070539C4242D005B0F0BD704700234FF490
:10BE80008051AA19CDE9001392F8DC180129CDE9F7
:10BE90000233F0D00221D2F8A008012482F8DD1884
:10BEA0003A4987683940816082F8DD4882F8DC3899
:10BEB0000023AA19CDE90033029392F8DC38012B54
:10BEC000D9D0D2F8A03802212E4882F8DD1883425A
:10BED0005A6899684ED000F5806083424AD022F0BB
:10BEE000700221F08001354401205A6099600023DE
:10BEF00085F8DD0885F8DC3805B0F0BD00214FF489
:10BF00008053CDE90031AB1993F8DC28012ACDE943
:10BF10000211B0D0D3F8A008022283F8DD281B4A12
:10BF200087683A4082601A4A83F8DC1801219442FB
:10BF300083F8DD18BCD0144B9C429CD1B8E700229A
:10BF40004FF48051AB19CDE9001293F8DC180129A8
:10BF5000CDE902228FD00221D3F8A008012483F872
:10BF6000DD180A4987683940816083F8DD4883F825
:10BF7000DC289DE722F47002B1E700BFD8980408DE
:10BF80003017012000000140000C00408800FEFF37
:10BF90000004014003689B0AA3F58013522B58D874
:10BFA000F0B53D4C234493F838310D2B50D84479EB
:10BFB000A608002952D003EB8300384D4FF0020C45
:10BFC000A40803EB40000CFA04F4304405EB83169C
:10BFD000D6F8A06805EB800CF768CCF8641C3C43ED
:10BFE000CCF8742CF4609C01EFF3118C502282F396
:10BFF00012882C2203FB02F2A818D0F8601C49B367
:10C000000A1DC0F8841C26492C20264E03FB00F094
:10C0100006EB000E1430014451F8040B18B1106007
:10C0200051F8042C04328E45F6D100215FFA8CFCC5
:10C0300011608CF311882C222C4402FB0353D4F89A
:10C04000A028D3F8843C13B3D36843F00103D36032
:10C05000F0BD7047243212490A44D5E703EB830050
:10C060000E4D344603EB4000304405EB8316D6F802
:10C07000A0780226A640FC6824EA0604FC6005EBD2
:10C080008004C4F8641CC4F8742C9C01ACE7D36829
:10C0900023F00103D360F0BDD898040830170120C5
:10C0A00090230120B423012001490248FCF70CBE73
:10C0B000902301200000014010B5064C064804F50D
:10C0C0004661FCF701FE04F6EC510448BDE810405F
:10C0D000FCF7FABD30170120000001400044014088
:10C0E00002494FF08040FCF7EFBD00BFBC230120A8
:10C0F00001490248FCF7E8BDE823012000040040A4
:10C1000001490248FCF7E0BD14240120000800406A
:10C1100001490248FCF7D8BD40240120000C004032
:10C120002DE9F843194E3569F3681D4010D04FF0E2
:10C130000047DFF85C80B5FA85F227FA02F31F2A80
:10C140006FEA030305EA0305336103D0002DF2D142
:10C15000BDE8F883D8F8643DA3B103F1FF390023AB
:10C160001FFA89F9C8F8643DD8F8604D002CEDD06D
:10C1700023682046494698476468002CF8D1002D72
:10C18000D9D1E5E7F16A1FFA81F9EDE70010004027
:10C190003017012001490248FCF796BDC424012054
:10C1A0000004014010B5064C064804F69451FCF713
:10C1B0008BFD04F567610448BDE81040FCF784BDC1
:10C1C0003017012000040140001C004001490248D2
:10C1D000FCF77ABDF02401200040014001490248EB
:10C1E000FCF772BD48250120004801400149024882
:10C1F000FCF76ABD74250120001800402DE9F04FBE
:10C200004FF4257295B0002180483DF0AFF9804B86
:10C21000804F4FF080415A6C07F12004B94642F03C
:10C22000010207F51E65A246DFF8F4815A645A6CD4
:10C23000794E02F001020092009A1A6C42F001025B
:10C240001A641A6C02F001020192019A1A6C42F00F
:10C2500002021A641A6C02F002020292029A1A6C2A
:10C2600042F004021A641A6C02F004020392039A68
:10C270001A6C42F008021A641A6C02F00802049266
:10C28000049A1A6C42F010021A641A6C02F010023E
:10C290000592059A1A6C42F020021A641A6C02F098
:10C2A00020020692069A5A6C42F002025A645A6CB4
:10C2B00002F002020792079A5A6C42F480325A64E2
:10C2C0005A6C02F480320892089A5A6C42F4003296
:10C2D0005A645A6C02F400320992099A5A6C42F478
:10C2E00080225A645A6C02F480220A920A9A1A6CCA
:10C2F00042F040021A641A6C02F040020B920B9A50
:10C300001A6C42F080021A641A6C02F080020C92DD
:10C310000C9A1A6C42F480721A641B6C03F48073DA
:10C320000D930D9B4246002301E056F833208A42CC
:10C330000CD001330E2BF8D10AF1200A002036F080
:10C34000C9FE55450DD05AF8201CEBE7334A0AF1D7
:10C35000200A02EBC30393F8240036F0BBFE5545D8
:10C36000F1D107F51C67DFF8BCB0DFF8BCA009F11C
:10C3700020094F4526D099F80630002BF7D099F8C0
:10C3800004000BF0F5FC06460028F0D0036809F124
:10C39000200919F8188C53440BEB932393F81C01D4
:10C3A00036F098FEB288306800230E9202220EA961
:10C3B000CDF84C80CDE90F23CDE911333AF026FAC0
:10C3C0004F45D8D14FF08041154F134E3A460023C8
:10C3D00001E056F833208A420BD001330E2BF8D1FE
:10C3E0002034002036F076FEAC420CD054F8201CED
:10C3F000ECE70A4A203402EBC30393F8240036F03A
:10C4000069FEAC42F2D115B0BDE8F08F9023012057
:10C410000038024030A00408F0A90408D0A904089C
:10C4200000000140D89804080000FEBF30B503208A
:10C4300083B0FDF769FD01284BD0324C0025324A0C
:10C440000523C4F89850C4F89C50C4F8A020C4F840
:10C450009430BFF34F8FBFF36F8F4FF6FF01E26849
:10C460002A4B0A4013432A4AE360536F31F0A6FB7C
:10C47000284B2949A3FB0023D4F8FC209B0C42F055
:10C480008072C4F8FC20C1F88431D1F8EC30234923
:10C49000234AA1FB031323499B09C2F8B01F55602F
:10C4A000013B1168B3F1807F41F00101116008D2B6
:10C4B0004FF0E022F0215361072384F823109561A7
:10C4C00013614FF0E022136943F00403136103B0DA
:10C4D00030BD02210320FFF705F80D4B12485A6CBE
:10C4E000124942F480425A645B6C03F48043019326
:10C4F000019A02680B68026083F308884B689847CA
:10C50000FEE700BF00ED00E01B0000060005FA0595
:10C510000038024083DE1B4330170120D34D6210E8
:10C52000001000E055CEACC5003801400000F01FFF
:10C53000D0F82011242200232DE9F041C0F89421E5
:10C5400004460A68806804F5907522F001020A60CA
:10C550000B604B608B6094F805C0C4F89C314FEAC7
:10C560008C22C4F8943184F8903102F48052C4F8DB
:10C570009831C4F83831C4F828214FEA0C32C4F895
:10C58000403102F40052C4F834312379C4F82C212C
:10C590004FEA0C22C4F8240113F0010002F4806277
:10C5A000C4F8302102D00422C4F8342113F002036D
:10C5B00005D0D4F8342142F00802C4F834211CF02C
:10C5C000010F0DD048B1D4F8442142F00202C4F862
:10C5D00044214FF48032C4F84C21002B40F0FF80FE
:10C5E000A84B03F1200053F8042F944200F0BD80C3
:10C5F0009842F8D11CF0080F40F0CD80D4F8943167
:10C60000002B00F0168124232846C4F894310B68CF
:10C6100023F001030B6033F0F3FC012815D0D4F8AC
:10C620004431002B40F01881D4F8203128465A6854
:10C6300022F490425A609A6822F02A029A601A689C
:10C6400042F001021A603AF0CDFA2379DA0761D597
:10C65000D4F8FC20002A00F0D9800023D4F804117B
:10C6600004F13C06E263A3644FF480623046E26466
:10C67000C4E91013C4E91433C4E91833C4E91A3304
:10C680004FF48033E3654FF48073A3653AF024FBE5
:10C69000304630F00DFFD4F89881C4F88C61B8F1C1
:10C6A000200F656731D1E368626999B26AB3B1FA64
:10C6B00081F77F0949B394F89001012825D03046CD
:10C6C0000126C4F89C710B4684F890612226A4F8D8
:10C6D0007811C4F898616C4ED4F82011A6676B4E9F
:10C6E0002431C4F87421E667694EC4F88C70C4F82C
:10C6F000886030F07BFF002800F0B280102384F8BF
:10C700009071C4F89C31C4F89481E26B237952682B
:10C71000C4F814219B0777D5D4F80021002A69D0EA
:10C720000023D4F8081104F19C06C4F89C20C4F836
:10C73000A8304022C4F8B8303046C4E92C33C4E9EC
:10C740003033C4E932334FF48033C4F8BC304FF493
:10C750008063C4E92812C4F8AC303AF0BDFA304620
:10C7600030F0A6FE002867D0FEE7002C3FF442AF71
:10C7700094F8BC31002B3FF43DAFD4F844311CF0A9
:10C78000080F43F00803C4F844314FF40043C4F8E1
:10C7900054313FF433AFD4F89431002B55D02423D7
:10C7A0002846C4F894310B6823F001030B6033F082
:10C7B00027FC01283FF449AFD4F84431002B47D17E
:10C7C000D4F8203128465A6822F490425A609A6878
:10C7D00022F022029A609A6842F008022EE7D4F80A
:10C7E000443143F00103C4F844314FF40033C4F83A
:10C7F0004831F5E6D4F8A0311A6842F080021A6098
:10C800001A6842F040021A60BDE8F081D4F8A02115
:10C81000116841F480711160916841F001019160EB
:10C82000116841F020011160116841F010011160A0
:10C8300070E784F89031E6E6D4F89C30C4F888615B
:10C84000C4F8D4505860BDE8F08184F89031A6E770
:10C85000284633F08DFDB3E7284633F089FDE3E643
:10C86000D4F8203184F890011A6842F480721A607A
:10C870009A6842F001029A609A6842F040029A6017
:10C8800043E700BFB41E0020D9E3030809E403080E
:10C890000DE40308F8B5EFF31185502383F31288F4
:10C8A000D0F800311B6813F0010303D0EDB285F31B
:10C8B0001188F8BDD0F894210446D0F898110A43A5
:10C8C00002F02102212AF1D0D0E90901884253D097
:10C8D00043D822691846531A9BB2D4F894710022A7
:10C8E000A062202F84F8A421E0D1A2695118DDD0E4
:10C8F000B3FA83F67609002BD8D094F89021012A58
:10C90000D4D00122D4F88801A4F8723184F890219F
:10C910002122C4F89C61C4F86C11A4F87031C4F8E9
:10C920009421E8B1DFF858C0D4F82021C0F83CC009
:10C93000DFF850C028320665C0F840C0DFF848C0B4
:10C94000C0F84CC030F052FE50B1102384F8906112
:10C95000C4F89C31C4F89471A8E7431A9BB2BCE7B1
:10C96000D4F8203100224021196284F890219A687D
:10C9700042F080029A6099E7012384F8A43195E798
:10C98000B1E30308D5E303080DE403082DE9F04102
:10C99000D0F8204186B00546E3699A0615D5606A4D
:10C9A000EB6AC0B2002B00F08980296B9847D5F85C
:10C9B0002041236823F480732360A36823F00103DC
:10C9C000A360A36943F00803A361E369DB0701D512
:10C9D00001232362E3699F0701D502232362E369F0
:10C9E0005E0701D504232362E369180701D50823F4
:10C9F0002362E369590614D54023236295F8BD618B
:10CA0000002E33D0D5F80031DBB12846FFF742FFC6
:10CA100095F8A4311BB195F8BD61002E5FD0D5F813
:10CA20002041D5F8003173B1E369DB0606D56B6BA5
:10CA300013B19847D5F820411023236206B0BDE812
:10CA4000F081D5F82041E3691A06EDD5D5E909232F
:10CA500093423FD0AA69D25C0133D2B2A2622A6962
:10CA6000B3FBF2F102FB1133AB62DDE795F8B201E3
:10CA700001270BF07DF9236823F0080323600446A7
:10CA800085F8BD710028BDD00168284A284B0A44AA
:10CA900003EB922393F81C0136F01CFBA38820685B
:10CAA0006946CDE90036CDE90266CDE9047639F074
:10CAB000ADFED5F80031002BA7D1C2E7EB696A695A
:10CAC000D054EB69EA680133B3FBF2F102FB113396
:10CAD000EB616CE7236823F080032360A4E795F8FB
:10CAE000B2014FF001080BF043F9D5F82041074699
:10CAF000236823F00803236085F8BD81002890D0C7
:10CB000001680A4A0A4B0A4403EB922393F81C017A
:10CB100036F0E0FABB8838686946CDE90036CDE9E1
:10CB20000266CDE9048639F071FE78E70000FEBFA9
:10CB3000D89804082DE9F04FB04C89B004EB80047C
:10CB4000D4F8F84B002C6FD0D4F8AC511F46DFF866
:10CB5000C8B290466B680646A94AC4F8A0316B6B10
:10CB6000DFF8B89263612B6BA160A3616B8FE36008
:10CB70002B8FC4F8A82123610BF1900323602A783E
:10CB800009EB420393F9F40E53000193C3B2012B56
:10CB900040F2B780D4F8003183B19A4900209C4616
:10CBA0004B68013024319C4500F03A811028F7D1C0
:10CBB000954B93F87810002900F08481D4F8FC009C
:10CBC000002840F0F3806B68C4F8203195F8280005
:10CBD000002840F0038194F8B2014FF0020A0BF0F4
:10CBE000C7F817F00803814694F8B0B184F8BDA1E6
:10CBF0001ED0002844D017F0510F4FF00B0306F160
:10CC0000010614BF0A211A2117F0410F8371C67162
:10CC100014BF4023202394F8B32119430BF0CEF81E
:10CC2000D4F8FC30002B55D0204609B0BDE8F08F79
:10CC300018F0020F24D018B30B223906827106F1C6
:10CC40000102C27100F145810268704994F8B37124
:10CC500011446F4A019302EB912292F81C0136F0C5
:10CC600039FAB9F80420019B02A9D9F80000CDF8DF
:10CC70000CA0079702920693CDE9043339F0C6FD64
:10CC800058460BF075F807460028C9D018F0010F78
:10CC9000C6D001680C235D4A013683710A445C4B9F
:10CCA000C67103EB922394F8B16193F81C0136F03E
:10CCB00011FABB88386802220293002302A9079662
:10CCC000CDE90323CDE9053339F0A0FDD4F8FC30DC
:10CCD000002BA9D195F82C1095F92A00890937F075
:10CCE0003DFD95F92A3095F82A20002B9CDB02F0B7
:10CCF0001F0201215B09474801FA02F240F8232094
:10CD000092E708234FF00C0A0BF1C00C1AFB003A13
:10CD10000023E64619460131172962D01EF81C3F50
:10CD2000042BF8D19EF801309342F4D15EF80A301A
:10CD3000002BF0D08E460199C4F800318944CEEB27
:10CD4000CE0199F9F5EE890000EB4009BEF1FF3FF5
:10CD500001EB89015944D1F8CC10C4F808113FF413
:10CD60001CAF0021013117293FF416AF1CF81CEF4E
:10CD7000BEF1050FF6D19CF801E09645F2D15CF8C2
:10CD80000AE0BEF1000FEDD0C1EBC101C4F8FCE038
:10CD900000EB4000890001EB80008344DBF8CC10FD
:10CDA000C4F80411002B7FF4F8AE7046154A002336
:10CDB000516801332432814261D0102BF8D1124BDB
:10CDC00093F87820002A7FF4FEAE2A78013283F8A7
:10CDD00079200C2283F878206B68F5E636F07AF932
:10CDE000F9E6019B9944D4F8003199F9F51E013117
:10CDF000B7D1002B7FF4D1AEE0E600BFC012002017
:10CE00002594000880000120000001200000FEBFE2
:10CE1000D898040800E100E0D0A9040830170120E8
:10CE20005FFA80F92E4B013209F1FF31D2B201EBEA
:10CE3000C10103EB810393F89C1000297FF4BEAE7F
:10CE400083F89D202748D3F8802082420CBF95208C
:10CE500096200B2283F89C2036F03CF92346484666
:10CE600095F82B202049FDF719FC6B68D4F8FC00DD
:10CE70002833C4F8183100283FF4A5AE96E7DBB29A
:10CE8000174A013B03EBC30302EB83032A7893F8B1
:10CE90009C100132D2B200297FF495AED3F8800005
:10CEA00083F89D200F4A90420CBF952096200C22BB
:10CEB00083F89C2036F00EF96B6803F12402C4F865
:10CEC0001C2181E6013283F879200B2283F8782037
:10CED00074E60123204684F8BD31FCF7A3FACFE6BF
:10CEE0000000012000600240E9900008C1F1030148
:10CEF0001E4A41EA800092F8F432C0B2834233D035
:10CF000010231B4930B58BB082F8F40201EB4302C9
:10CF100002F8203C013302F81F0C202BF6D1154DEE
:10CF200000220120029305F6047409928DF80C008A
:10CF30008DF820002046CDE900126946CDE9042293
:10CF4000CDE906220AF04EFAD5F8042F536A002BD9
:10CF500018BFA34214BF01230023002BFDD1136A85
:10CF6000002BFCD10BB030BD704700BF000001208A
:10CF70004C0000203017012038B5344D95F89C3F07
:10CF8000012B43D0022B09D0002B46D0304C94F813
:10CF9000F5325B0606D54FF4F07305E02C4C082300
:10CFA00084F8F5324FF4C373FF2202210020A4F865
:10CFB000F63284F8F422FFF799FF94F8F522002165
:10CFC00024480AF045FA95F89D2F022121480AF0DD
:10CFD0003FFA95F89E2F03211E480AF039FA95F87A
:10CFE0009F3F33B1012B2AD0032B14BFC722F72256
:10CFF00000E04722012117480AF02AFAB4F8F62285
:10D0000000211548BDE838403CF0B0BA4823104C28
:10D0100084F8F5324FF4F073C6E7A02105F60470EA
:10D020000AF00CFD00F00603094C022B03D000F0BF
:10D030000500012805D0082384F8F532B2E78722DD
:10D04000D8E7482384F8F532A5E700BF3017012060
:10D050000000012034260120D02601202DE9F043D4
:10D06000634D8DB0634FD5F8906028B9D7F8F8328A
:10D0700003F57A73B3422FD200230122FF215E4CC5
:10D080000B938DF80610204602A98DF814208DF818
